{
  "contractName": "Certification",
  "abi": [
    {
      "inputs": [],
      "stateMutability": "nonpayable",
      "type": "constructor"
    },
    {
      "anonymous": false,
      "inputs": [
        {
          "indexed": false,
          "internalType": "string",
          "name": "id",
          "type": "string"
        },
        {
          "indexed": false,
          "internalType": "string",
          "name": "rootId",
          "type": "string"
        },
        {
          "indexed": false,
          "internalType": "string",
          "name": "previousId",
          "type": "string"
        },
        {
          "indexed": false,
          "internalType": "address",
          "name": "signedBy",
          "type": "address"
        },
        {
          "indexed": false,
          "internalType": "string",
          "name": "ipfsHash",
          "type": "string"
        },
        {
          "indexed": false,
          "internalType": "uint256",
          "name": "timestamp",
          "type": "uint256"
        }
      ],
      "name": "CertificateSigned",
      "type": "event"
    },
    {
      "inputs": [
        {
          "internalType": "string",
          "name": "",
          "type": "string"
        }
      ],
      "name": "certificates",
      "outputs": [
        {
          "internalType": "string",
          "name": "rootId",
          "type": "string"
        },
        {
          "internalType": "string",
          "name": "id",
          "type": "string"
        },
        {
          "internalType": "string",
          "name": "previousId",
          "type": "string"
        },
        {
          "internalType": "address",
          "name": "signedBy",
          "type": "address"
        },
        {
          "internalType": "string",
          "name": "ipfsHash",
          "type": "string"
        },
        {
          "internalType": "uint256",
          "name": "timestamp",
          "type": "uint256"
        },
        {
          "internalType": "string",
          "name": "title",
          "type": "string"
        },
        {
          "internalType": "string",
          "name": "description",
          "type": "string"
        }
      ],
      "stateMutability": "view",
      "type": "function",
      "constant": true
    },
    {
      "inputs": [
        {
          "internalType": "string",
          "name": "",
          "type": "string"
        }
      ],
      "name": "latestCertificateId",
      "outputs": [
        {
          "internalType": "string",
          "name": "",
          "type": "string"
        }
      ],
      "stateMutability": "view",
      "type": "function",
      "constant": true
    },
    {
      "inputs": [],
      "name": "signatureOwner",
      "outputs": [
        {
          "internalType": "address",
          "name": "",
          "type": "address"
        }
      ],
      "stateMutability": "view",
      "type": "function",
      "constant": true
    },
    {
      "inputs": [
        {
          "internalType": "address",
          "name": "",
          "type": "address"
        },
        {
          "internalType": "uint256",
          "name": "",
          "type": "uint256"
        }
      ],
      "name": "signedCertificates",
      "outputs": [
        {
          "internalType": "string",
          "name": "",
          "type": "string"
        }
      ],
      "stateMutability": "view",
      "type": "function",
      "constant": true
    },
    {
      "inputs": [],
      "name": "getSignatureOwner",
      "outputs": [
        {
          "internalType": "address",
          "name": "",
          "type": "address"
        }
      ],
      "stateMutability": "view",
      "type": "function",
      "constant": true
    },
    {
      "inputs": [
        {
          "internalType": "string",
          "name": "_id",
          "type": "string"
        },
        {
          "internalType": "string",
          "name": "_ipfsHash",
          "type": "string"
        },
        {
          "internalType": "string",
          "name": "_title",
          "type": "string"
        },
        {
          "internalType": "string",
          "name": "_description",
          "type": "string"
        }
      ],
      "name": "signCertificate",
      "outputs": [],
      "stateMutability": "nonpayable",
      "type": "function"
    },
    {
      "inputs": [
        {
          "internalType": "string",
          "name": "_newId",
          "type": "string"
        },
        {
          "internalType": "string",
          "name": "_initialId",
          "type": "string"
        },
        {
          "internalType": "string",
          "name": "_ipfsHash",
          "type": "string"
        },
        {
          "internalType": "string",
          "name": "_title",
          "type": "string"
        },
        {
          "internalType": "string",
          "name": "_description",
          "type": "string"
        }
      ],
      "name": "editCertificate",
      "outputs": [],
      "stateMutability": "nonpayable",
      "type": "function"
    },
    {
      "inputs": [
        {
          "internalType": "string",
          "name": "_originalId",
          "type": "string"
        }
      ],
      "name": "getLatestCertificate",
      "outputs": [
        {
          "components": [
            {
              "internalType": "string",
              "name": "rootId",
              "type": "string"
            },
            {
              "internalType": "string",
              "name": "id",
              "type": "string"
            },
            {
              "internalType": "string",
              "name": "previousId",
              "type": "string"
            },
            {
              "internalType": "address",
              "name": "signedBy",
              "type": "address"
            },
            {
              "internalType": "string",
              "name": "ipfsHash",
              "type": "string"
            },
            {
              "internalType": "uint256",
              "name": "timestamp",
              "type": "uint256"
            },
            {
              "internalType": "string",
              "name": "title",
              "type": "string"
            },
            {
              "internalType": "string",
              "name": "description",
              "type": "string"
            }
          ],
          "internalType": "struct Certification.Certificate",
          "name": "",
          "type": "tuple"
        }
      ],
      "stateMutability": "view",
      "type": "function",
      "constant": true
    },
    {
      "inputs": [
        {
          "internalType": "string",
          "name": "_certId",
          "type": "string"
        }
      ],
      "name": "getCertificateById",
      "outputs": [
        {
          "components": [
            {
              "internalType": "string",
              "name": "rootId",
              "type": "string"
            },
            {
              "internalType": "string",
              "name": "id",
              "type": "string"
            },
            {
              "internalType": "string",
              "name": "previousId",
              "type": "string"
            },
            {
              "internalType": "address",
              "name": "signedBy",
              "type": "address"
            },
            {
              "internalType": "string",
              "name": "ipfsHash",
              "type": "string"
            },
            {
              "internalType": "uint256",
              "name": "timestamp",
              "type": "uint256"
            },
            {
              "internalType": "string",
              "name": "title",
              "type": "string"
            },
            {
              "internalType": "string",
              "name": "description",
              "type": "string"
            }
          ],
          "internalType": "struct Certification.Certificate",
          "name": "",
          "type": "tuple"
        }
      ],
      "stateMutability": "view",
      "type": "function",
      "constant": true
    },
    {
      "inputs": [
        {
          "internalType": "address",
          "name": "_owner",
          "type": "address"
        }
      ],
      "name": "getSignedCertificatesByOwner",
      "outputs": [
        {
          "components": [
            {
              "internalType": "string",
              "name": "rootId",
              "type": "string"
            },
            {
              "internalType": "string",
              "name": "id",
              "type": "string"
            },
            {
              "internalType": "string",
              "name": "previousId",
              "type": "string"
            },
            {
              "internalType": "address",
              "name": "signedBy",
              "type": "address"
            },
            {
              "internalType": "string",
              "name": "ipfsHash",
              "type": "string"
            },
            {
              "internalType": "uint256",
              "name": "timestamp",
              "type": "uint256"
            },
            {
              "internalType": "string",
              "name": "title",
              "type": "string"
            },
            {
              "internalType": "string",
              "name": "description",
              "type": "string"
            }
          ],
          "internalType": "struct Certification.Certificate[]",
          "name": "",
          "type": "tuple[]"
        }
      ],
      "stateMutability": "view",
      "type": "function",
      "constant": true
    },
    {
      "inputs": [
        {
          "internalType": "string",
          "name": "_initialId",
          "type": "string"
        }
      ],
      "name": "getCertificateHistory",
      "outputs": [
        {
          "components": [
            {
              "internalType": "string",
              "name": "rootId",
              "type": "string"
            },
            {
              "internalType": "string",
              "name": "id",
              "type": "string"
            },
            {
              "internalType": "string",
              "name": "previousId",
              "type": "string"
            },
            {
              "internalType": "address",
              "name": "signedBy",
              "type": "address"
            },
            {
              "internalType": "string",
              "name": "ipfsHash",
              "type": "string"
            },
            {
              "internalType": "uint256",
              "name": "timestamp",
              "type": "uint256"
            },
            {
              "internalType": "string",
              "name": "title",
              "type": "string"
            },
            {
              "internalType": "string",
              "name": "description",
              "type": "string"
            }
          ],
          "internalType": "struct Certification.Certificate[]",
          "name": "",
          "type": "tuple[]"
        }
      ],
      "stateMutability": "view",
      "type": "function",
      "constant": true
    }
  ],
  "bytecode": "0x608060405234801561001057600080fd5b50336000806101000a81548173ffffffffffffffffffffffffffffffffffffffff021916908373ffffffffffffffffffffffffffffffffffffffff1602179055506139a3806100606000396000f3fe608060405234801561001057600080fd5b50600436106100a95760003560e01c80636a55e101116100715780636a55e1011461018c5780637abc72a8146101a85780638f2b91ea146101c65780638fa4f4bf146101fd578063b91b679714610219578063c2e05c7814610249576100a9565b80631087452c146100ae57806332aeabcf146100cc578063380b0568146100fc57806345e373ed1461012c578063497985421461015c575b600080fd5b6100b6610279565b6040516100c39190612935565b60405180910390f35b6100e660048036038101906100e19190612990565b61029d565b6040516100f39190612c13565b60405180910390f35b61011660048036038101906101119190612c61565b61090f565b6040516101239190612ceb565b60405180910390f35b61014660048036038101906101419190612e42565b6109c8565b6040516101539190612f5e565b60405180910390f35b61017660048036038101906101719190612e42565b610e11565b6040516101839190612ceb565b60405180910390f35b6101a660048036038101906101a19190612f80565b610ec7565b005b6101b0611360565b6040516101bd9190612935565b60405180910390f35b6101e060048036038101906101db9190612e42565b611389565b6040516101f4989796959493929190613096565b60405180910390f35b6102176004803603810190610212919061313e565b611737565b005b610233600480360381019061022e9190612e42565b611b21565b6040516102409190612f5e565b60405180910390f35b610263600480360381019061025e9190612e42565b612016565b6040516102709190612c13565b60405180910390f35b60008054906101000a900473ffffffffffffffffffffffffffffffffffffffff1681565b60606000600360008473ffffffffffffffffffffffffffffffffffffffff1673ffffffffffffffffffffffffffffffffffffffff168152602001908152602001600020805480602002602001604051908101604052809291908181526020016000905b828210156103ac57838290600052602060002001805461031f90613244565b80601f016020809104026020016040519081016040528092919081815260200182805461034b90613244565b80156103985780601f1061036d57610100808354040283529160200191610398565b820191906000526020600020905b81548152906001019060200180831161037b57829003601f168201915b505050505081526020019060010190610300565b5050505090506000815167ffffffffffffffff8111156103cf576103ce612d17565b5b60405190808252806020026020018201604052801561040857816020015b6103f56127f6565b8152602001906001900390816103ed5790505b50905060005b8251811015610904576000600284838151811061042e5761042d613275565b5b602002602001015160405161044391906132e0565b9081526020016040518091039020805461045c90613244565b80601f016020809104026020016040519081016040528092919081815260200182805461048890613244565b80156104d55780601f106104aa576101008083540402835291602001916104d5565b820191906000526020600020905b8154815290600101906020018083116104b857829003601f168201915b505050505090506001816040516104ec91906132e0565b90815260200160405180910390206040518061010001604052908160008201805461051690613244565b80601f016020809104026020016040519081016040528092919081815260200182805461054290613244565b801561058f5780601f106105645761010080835404028352916020019161058f565b820191906000526020600020905b81548152906001019060200180831161057257829003601f168201915b505050505081526020016001820180546105a890613244565b80601f01602080910402602001604051908101604052809291908181526020018280546105d490613244565b80156106215780601f106105f657610100808354040283529160200191610621565b820191906000526020600020905b81548152906001019060200180831161060457829003601f168201915b5050505050815260200160028201805461063a90613244565b80601f016020809104026020016040519081016040528092919081815260200182805461066690613244565b80156106b35780601f10610688576101008083540402835291602001916106b3565b820191906000526020600020905b81548152906001019060200180831161069657829003601f168201915b505050505081526020016003820160009054906101000a900473ffffffffffffffffffffffffffffffffffffffff1673ffffffffffffffffffffffffffffffffffffffff1673ffffffffffffffffffffffffffffffffffffffff16815260200160048201805461072290613244565b80601f016020809104026020016040519081016040528092919081815260200182805461074e90613244565b801561079b5780601f106107705761010080835404028352916020019161079b565b820191906000526020600020905b81548152906001019060200180831161077e57829003601f168201915b50505050508152602001600582015481526020016006820180546107be90613244565b80601f01602080910402602001604051908101604052809291908181526020018280546107ea90613244565b80156108375780601f1061080c57610100808354040283529160200191610837565b820191906000526020600020905b81548152906001019060200180831161081a57829003601f168201915b5050505050815260200160078201805461085090613244565b80601f016020809104026020016040519081016040528092919081815260200182805461087c90613244565b80156108c95780601f1061089e576101008083540402835291602001916108c9565b820191906000526020600020905b8154815290600101906020018083116108ac57829003601f168201915b5050505050815250508383815181106108e5576108e4613275565b5b60200260200101819052505080806108fc90613326565b91505061040e565b508092505050919050565b6003602052816000526040600020818154811061092b57600080fd5b9060005260206000200160009150915050805461094790613244565b80601f016020809104026020016040519081016040528092919081815260200182805461097390613244565b80156109c05780601f10610995576101008083540402835291602001916109c0565b820191906000526020600020905b8154815290600101906020018083116109a357829003601f168201915b505050505081565b6109d06127f6565b6000825111610a14576040517f08c379a0000000000000000000000000000000000000000000000000000000008152600401610a0b906133ba565b60405180910390fd5b600182604051610a2491906132e0565b908152602001604051809103902060405180610100016040529081600082018054610a4e90613244565b80601f0160208091040260200160405190810160405280929190818152602001828054610a7a90613244565b8015610ac75780601f10610a9c57610100808354040283529160200191610ac7565b820191906000526020600020905b815481529060010190602001808311610aaa57829003601f168201915b50505050508152602001600182018054610ae090613244565b80601f0160208091040260200160405190810160405280929190818152602001828054610b0c90613244565b8015610b595780601f10610b2e57610100808354040283529160200191610b59565b820191906000526020600020905b815481529060010190602001808311610b3c57829003601f168201915b50505050508152602001600282018054610b7290613244565b80601f0160208091040260200160405190810160405280929190818152602001828054610b9e90613244565b8015610beb5780601f10610bc057610100808354040283529160200191610beb565b820191906000526020600020905b815481529060010190602001808311610bce57829003601f168201915b505050505081526020016003820160009054906101000a900473ffffffffffffffffffffffffffffffffffffffff1673ffffffffffffffffffffffffffffffffffffffff1673ffffffffffffffffffffffffffffffffffffffff168152602001600482018054610c5a90613244565b80601f0160208091040260200160405190810160405280929190818152602001828054610c8690613244565b8015610cd35780601f10610ca857610100808354040283529160200191610cd3565b820191906000526020600020905b815481529060010190602001808311610cb657829003601f168201915b5050505050815260200160058201548152602001600682018054610cf690613244565b80601f0160208091040260200160405190810160405280929190818152602001828054610d2290613244565b8015610d6f5780601f10610d4457610100808354040283529160200191610d6f565b820191906000526020600020905b815481529060010190602001808311610d5257829003601f168201915b50505050508152602001600782018054610d8890613244565b80601f0160208091040260200160405190810160405280929190818152602001828054610db490613244565b8015610e015780601f10610dd657610100808354040283529160200191610e01565b820191906000526020600020905b815481529060010190602001808311610de457829003601f168201915b5050505050815250509050919050565b6002818051602081018201805184825260208301602085012081835280955050505050506000915090508054610e4690613244565b80601f0160208091040260200160405190810160405280929190818152602001828054610e7290613244565b8015610ebf5780601f10610e9457610100808354040283529160200191610ebf565b820191906000526020600020905b815481529060010190602001808311610ea257829003601f168201915b505050505081565b60008054906101000a900473ffffffffffffffffffffffffffffffffffffffff1673ffffffffffffffffffffffffffffffffffffffff163373ffffffffffffffffffffffffffffffffffffffff1614610f55576040517f08c379a0000000000000000000000000000000000000000000000000000000008152600401610f4c90613426565b60405180910390fd5b6000855111610f99576040517f08c379a0000000000000000000000000000000000000000000000000000000008152600401610f90906134b8565b60405180910390fd5b6000845111610fdd576040517f08c379a0000000000000000000000000000000000000000000000000000000008152600401610fd490613524565b60405180910390fd5b6000835111611021576040517f08c379a000000000000000000000000000000000000000000000000000000000815260040161101890613590565b60405180910390fd5b600060028560405161103391906132e0565b9081526020016040518091039020805461104c90613244565b80601f016020809104026020016040519081016040528092919081815260200182805461107890613244565b80156110c55780601f1061109a576101008083540402835291602001916110c5565b820191906000526020600020905b8154815290600101906020018083116110a857829003601f168201915b505050505090506000815111611110576040517f08c379a0000000000000000000000000000000000000000000000000000000008152600401611107906135fc565b60405180910390fd5b600060018760405161112291906132e0565b90815260200160405180910390206005015414611174576040517f08c379a000000000000000000000000000000000000000000000000000000000815260040161116b9061368e565b60405180910390fd5b6040518061010001604052808681526020018781526020018281526020013373ffffffffffffffffffffffffffffffffffffffff168152602001858152602001428152602001848152602001838152506001876040516111d491906132e0565b908152602001604051809103902060008201518160000190805190602001906111fe929190612851565b50602082015181600101908051906020019061121b929190612851565b506040820151816002019080519060200190611238929190612851565b5060608201518160030160006101000a81548173ffffffffffffffffffffffffffffffffffffffff021916908373ffffffffffffffffffffffffffffffffffffffff160217905550608082015181600401908051906020019061129c929190612851565b5060a0820151816005015560c08201518160060190805190602001906112c3929190612851565b5060e08201518160070190805190602001906112e0929190612851565b50905050856002866040516112f591906132e0565b90815260200160405180910390209080519060200190611316929190612851565b507fe2484b545433b20e20bc75eb7316e3e7e9e731f8fd78342114b813d11ca0d599868683338842604051611350969594939291906136ae565b60405180910390a1505050505050565b60008060009054906101000a900473ffffffffffffffffffffffffffffffffffffffff16905090565b6001818051602081018201805184825260208301602085012081835280955050505050506000915090508060000180546113c290613244565b80601f01602080910402602001604051908101604052809291908181526020018280546113ee90613244565b801561143b5780601f106114105761010080835404028352916020019161143b565b820191906000526020600020905b81548152906001019060200180831161141e57829003601f168201915b50505050509080600101805461145090613244565b80601f016020809104026020016040519081016040528092919081815260200182805461147c90613244565b80156114c95780601f1061149e576101008083540402835291602001916114c9565b820191906000526020600020905b8154815290600101906020018083116114ac57829003601f168201915b5050505050908060020180546114de90613244565b80601f016020809104026020016040519081016040528092919081815260200182805461150a90613244565b80156115575780601f1061152c57610100808354040283529160200191611557565b820191906000526020600020905b81548152906001019060200180831161153a57829003601f168201915b5050505050908060030160009054906101000a900473ffffffffffffffffffffffffffffffffffffffff169080600401805461159290613244565b80601f01602080910402602001604051908101604052809291908181526020018280546115be90613244565b801561160b5780601f106115e05761010080835404028352916020019161160b565b820191906000526020600020905b8154815290600101906020018083116115ee57829003601f168201915b50505050509080600501549080600601805461162690613244565b80601f016020809104026020016040519081016040528092919081815260200182805461165290613244565b801561169f5780601f106116745761010080835404028352916020019161169f565b820191906000526020600020905b81548152906001019060200180831161168257829003601f168201915b5050505050908060070180546116b490613244565b80601f01602080910402602001604051908101604052809291908181526020018280546116e090613244565b801561172d5780601f106117025761010080835404028352916020019161172d565b820191906000526020600020905b81548152906001019060200180831161171057829003601f168201915b5050505050905088565b60008054906101000a900473ffffffffffffffffffffffffffffffffffffffff1673ffffffffffffffffffffffffffffffffffffffff163373ffffffffffffffffffffffffffffffffffffffff16146117c5576040517f08c379a00000000000000000000000000000000000000000000000000000000081526004016117bc90613426565b60405180910390fd5b6000845111611809576040517f08c379a000000000000000000000000000000000000000000000000000000000815260040161180090613777565b60405180910390fd5b600083511161184d576040517f08c379a000000000000000000000000000000000000000000000000000000000815260040161184490613590565b60405180910390fd5b600060018560405161185f91906132e0565b908152602001604051809103902060050154146118b1576040517f08c379a00000000000000000000000000000000000000000000000000000000081526004016118a8906137e3565b60405180910390fd5b6040518061010001604052808581526020018581526020016040518060200160405280600081525081526020013373ffffffffffffffffffffffffffffffffffffffff1681526020018481526020014281526020018381526020018281525060018560405161192091906132e0565b9081526020016040518091039020600082015181600001908051906020019061194a929190612851565b506020820151816001019080519060200190611967929190612851565b506040820151816002019080519060200190611984929190612851565b5060608201518160030160006101000a81548173ffffffffffffffffffffffffffffffffffffffff021916908373ffffffffffffffffffffffffffffffffffffffff16021790555060808201518160040190805190602001906119e8929190612851565b5060a0820151816005015560c0820151816006019080519060200190611a0f929190612851565b5060e0820151816007019080519060200190611a2c929190612851565b5090505083600285604051611a4191906132e0565b90815260200160405180910390209080519060200190611a62929190612851565b50600360003373ffffffffffffffffffffffffffffffffffffffff1673ffffffffffffffffffffffffffffffffffffffff16815260200190815260200160002084908060018154018082558091505060019003906000526020600020016000909190919091509080519060200190611adb929190612851565b507fe2484b545433b20e20bc75eb7316e3e7e9e731f8fd78342114b813d11ca0d5998485338642604051611b13959493929190613829565b60405180910390a150505050565b611b296127f6565b6000600283604051611b3b91906132e0565b90815260200160405180910390208054611b5490613244565b80601f0160208091040260200160405190810160405280929190818152602001828054611b8090613244565b8015611bcd5780601f10611ba257610100808354040283529160200191611bcd565b820191906000526020600020905b815481529060010190602001808311611bb057829003601f168201915b505050505090506000815111611c18576040517f08c379a0000000000000000000000000000000000000000000000000000000008152600401611c0f906138f0565b60405180910390fd5b600181604051611c2891906132e0565b908152602001604051809103902060405180610100016040529081600082018054611c5290613244565b80601f0160208091040260200160405190810160405280929190818152602001828054611c7e90613244565b8015611ccb5780601f10611ca057610100808354040283529160200191611ccb565b820191906000526020600020905b815481529060010190602001808311611cae57829003601f168201915b50505050508152602001600182018054611ce490613244565b80601f0160208091040260200160405190810160405280929190818152602001828054611d1090613244565b8015611d5d5780601f10611d3257610100808354040283529160200191611d5d565b820191906000526020600020905b815481529060010190602001808311611d4057829003601f168201915b50505050508152602001600282018054611d7690613244565b80601f0160208091040260200160405190810160405280929190818152602001828054611da290613244565b8015611def5780601f10611dc457610100808354040283529160200191611def565b820191906000526020600020905b815481529060010190602001808311611dd257829003601f168201915b505050505081526020016003820160009054906101000a900473ffffffffffffffffffffffffffffffffffffffff1673ffffffffffffffffffffffffffffffffffffffff1673ffffffffffffffffffffffffffffffffffffffff168152602001600482018054611e5e90613244565b80601f0160208091040260200160405190810160405280929190818152602001828054611e8a90613244565b8015611ed75780601f10611eac57610100808354040283529160200191611ed7565b820191906000526020600020905b815481529060010190602001808311611eba57829003601f168201915b5050505050815260200160058201548152602001600682018054611efa90613244565b80601f0160208091040260200160405190810160405280929190818152602001828054611f2690613244565b8015611f735780601f10611f4857610100808354040283529160200191611f73565b820191906000526020600020905b815481529060010190602001808311611f5657829003601f168201915b50505050508152602001600782018054611f8c90613244565b80601f0160208091040260200160405190810160405280929190818152602001828054611fb890613244565b80156120055780601f10611fda57610100808354040283529160200191612005565b820191906000526020600020905b815481529060010190602001808311611fe857829003601f168201915b505050505081525050915050919050565b6060600060028360405161202a91906132e0565b9081526020016040518091039020805461204390613244565b905011612085576040517f08c379a000000000000000000000000000000000000000000000000000000000815260040161207c906138f0565b60405180910390fd5b60008060028460405161209891906132e0565b908152602001604051809103902080546120b190613244565b80601f01602080910402602001604051908101604052809291908181526020018280546120dd90613244565b801561212a5780601f106120ff5761010080835404028352916020019161212a565b820191906000526020600020905b81548152906001019060200180831161210d57829003601f168201915b505050505090505b6000815111156121fb57818061214790613326565b92505060018160405161215a91906132e0565b9081526020016040518091039020600201805461217690613244565b80601f01602080910402602001604051908101604052809291908181526020018280546121a290613244565b80156121ef5780601f106121c4576101008083540402835291602001916121ef565b820191906000526020600020905b8154815290600101906020018083116121d257829003601f168201915b50505050509050612132565b60008267ffffffffffffffff81111561221757612216612d17565b5b60405190808252806020026020018201604052801561225057816020015b61223d6127f6565b8152602001906001900390816122355790505b50905060028560405161226391906132e0565b9081526020016040518091039020805461227c90613244565b80601f01602080910402602001604051908101604052809291908181526020018280546122a890613244565b80156122f55780601f106122ca576101008083540402835291602001916122f5565b820191906000526020600020905b8154815290600101906020018083116122d857829003601f168201915b5050505050915060008390505b60008111156127ea5760018360405161231b91906132e0565b90815260200160405180910390206040518061010001604052908160008201805461234590613244565b80601f016020809104026020016040519081016040528092919081815260200182805461237190613244565b80156123be5780601f10612393576101008083540402835291602001916123be565b820191906000526020600020905b8154815290600101906020018083116123a157829003601f168201915b505050505081526020016001820180546123d790613244565b80601f016020809104026020016040519081016040528092919081815260200182805461240390613244565b80156124505780601f1061242557610100808354040283529160200191612450565b820191906000526020600020905b81548152906001019060200180831161243357829003601f168201915b5050505050815260200160028201805461246990613244565b80601f016020809104026020016040519081016040528092919081815260200182805461249590613244565b80156124e25780601f106124b7576101008083540402835291602001916124e2565b820191906000526020600020905b8154815290600101906020018083116124c557829003601f168201915b505050505081526020016003820160009054906101000a900473ffffffffffffffffffffffffffffffffffffffff1673ffffffffffffffffffffffffffffffffffffffff1673ffffffffffffffffffffffffffffffffffffffff16815260200160048201805461255190613244565b80601f016020809104026020016040519081016040528092919081815260200182805461257d90613244565b80156125ca5780601f1061259f576101008083540402835291602001916125ca565b820191906000526020600020905b8154815290600101906020018083116125ad57829003601f168201915b50505050508152602001600582015481526020016006820180546125ed90613244565b80601f016020809104026020016040519081016040528092919081815260200182805461261990613244565b80156126665780601f1061263b57610100808354040283529160200191612666565b820191906000526020600020905b81548152906001019060200180831161264957829003601f168201915b5050505050815260200160078201805461267f90613244565b80601f01602080910402602001604051908101604052809291908181526020018280546126ab90613244565b80156126f85780601f106126cd576101008083540402835291602001916126f8565b820191906000526020600020905b8154815290600101906020018083116126db57829003601f168201915b5050505050815250508260018361270f9190613910565b815181106127205761271f613275565b5b602002602001018190525060018360405161273b91906132e0565b9081526020016040518091039020600201805461275790613244565b80601f016020809104026020016040519081016040528092919081815260200182805461278390613244565b80156127d05780601f106127a5576101008083540402835291602001916127d0565b820191906000526020600020905b8154815290600101906020018083116127b357829003601f168201915b5050505050925080806127e290613944565b915050612302565b50809350505050919050565b604051806101000160405280606081526020016060815260200160608152602001600073ffffffffffffffffffffffffffffffffffffffff168152602001606081526020016000815260200160608152602001606081525090565b82805461285d90613244565b90600052602060002090601f01602090048101928261287f57600085556128c6565b82601f1061289857805160ff19168380011785556128c6565b828001600101855582156128c6579182015b828111156128c55782518255916020019190600101906128aa565b5b5090506128d391906128d7565b5090565b5b808211156128f05760008160009055506001016128d8565b5090565b600073ffffffffffffffffffffffffffffffffffffffff82169050919050565b600061291f826128f4565b9050919050565b61292f81612914565b82525050565b600060208201905061294a6000830184612926565b92915050565b6000604051905090565b600080fd5b600080fd5b61296d81612914565b811461297857600080fd5b50565b60008135905061298a81612964565b92915050565b6000602082840312156129a6576129a561295a565b5b60006129b48482850161297b565b91505092915050565b600081519050919050565b600082825260208201905092915050565b6000819050602082019050919050565b600081519050919050565b600082825260208201905092915050565b60005b83811015612a23578082015181840152602081019050612a08565b83811115612a32576000848401525b50505050565b6000601f19601f8301169050919050565b6000612a54826129e9565b612a5e81856129f4565b9350612a6e818560208601612a05565b612a7781612a38565b840191505092915050565b612a8b81612914565b82525050565b6000819050919050565b612aa481612a91565b82525050565b6000610100830160008301518482036000860152612ac88282612a49565b91505060208301518482036020860152612ae28282612a49565b91505060408301518482036040860152612afc8282612a49565b9150506060830151612b116060860182612a82565b5060808301518482036080860152612b298282612a49565b91505060a0830151612b3e60a0860182612a9b565b5060c083015184820360c0860152612b568282612a49565b91505060e083015184820360e0860152612b708282612a49565b9150508091505092915050565b6000612b898383612aaa565b905092915050565b6000602082019050919050565b6000612ba9826129bd565b612bb381856129c8565b935083602082028501612bc5856129d9565b8060005b85811015612c015784840389528151612be28582612b7d565b9450612bed83612b91565b925060208a01995050600181019050612bc9565b50829750879550505050505092915050565b60006020820190508181036000830152612c2d8184612b9e565b905092915050565b612c3e81612a91565b8114612c4957600080fd5b50565b600081359050612c5b81612c35565b92915050565b60008060408385031215612c7857612c7761295a565b5b6000612c868582860161297b565b9250506020612c9785828601612c4c565b9150509250929050565b600082825260208201905092915050565b6000612cbd826129e9565b612cc78185612ca1565b9350612cd7818560208601612a05565b612ce081612a38565b840191505092915050565b60006020820190508181036000830152612d058184612cb2565b905092915050565b600080fd5b600080fd5b7f4e487b7100000000000000000000000000000000000000000000000000000000600052604160045260246000fd5b612d4f82612a38565b810181811067ffffffffffffffff82111715612d6e57612d6d612d17565b5b80604052505050565b6000612d81612950565b9050612d8d8282612d46565b919050565b600067ffffffffffffffff821115612dad57612dac612d17565b5b612db682612a38565b9050602081019050919050565b82818337600083830152505050565b6000612de5612de084612d92565b612d77565b905082815260208101848484011115612e0157612e00612d12565b5b612e0c848285612dc3565b509392505050565b600082601f830112612e2957612e28612d0d565b5b8135612e39848260208601612dd2565b91505092915050565b600060208284031215612e5857612e5761295a565b5b600082013567ffffffffffffffff811115612e7657612e7561295f565b5b612e8284828501612e14565b91505092915050565b6000610100830160008301518482036000860152612ea98282612a49565b91505060208301518482036020860152612ec38282612a49565b91505060408301518482036040860152612edd8282612a49565b9150506060830151612ef26060860182612a82565b5060808301518482036080860152612f0a8282612a49565b91505060a0830151612f1f60a0860182612a9b565b5060c083015184820360c0860152612f378282612a49565b91505060e083015184820360e0860152612f518282612a49565b9150508091505092915050565b60006020820190508181036000830152612f788184612e8b565b905092915050565b600080600080600060a08688031215612f9c57612f9b61295a565b5b600086013567ffffffffffffffff811115612fba57612fb961295f565b5b612fc688828901612e14565b955050602086013567ffffffffffffffff811115612fe757612fe661295f565b5b612ff388828901612e14565b945050604086013567ffffffffffffffff8111156130145761301361295f565b5b61302088828901612e14565b935050606086013567ffffffffffffffff8111156130415761304061295f565b5b61304d88828901612e14565b925050608086013567ffffffffffffffff81111561306e5761306d61295f565b5b61307a88828901612e14565b9150509295509295909350565b61309081612a91565b82525050565b60006101008201905081810360008301526130b1818b612cb2565b905081810360208301526130c5818a612cb2565b905081810360408301526130d98189612cb2565b90506130e86060830188612926565b81810360808301526130fa8187612cb2565b905061310960a0830186613087565b81810360c083015261311b8185612cb2565b905081810360e083015261312f8184612cb2565b90509998505050505050505050565b600080600080608085870312156131585761315761295a565b5b600085013567ffffffffffffffff8111156131765761317561295f565b5b61318287828801612e14565b945050602085013567ffffffffffffffff8111156131a3576131a261295f565b5b6131af87828801612e14565b935050604085013567ffffffffffffffff8111156131d0576131cf61295f565b5b6131dc87828801612e14565b925050606085013567ffffffffffffffff8111156131fd576131fc61295f565b5b61320987828801612e14565b91505092959194509250565b7f4e487b7100000000000000000000000000000000000000000000000000000000600052602260045260246000fd5b6000600282049050600182168061325c57607f821691505b60208210810361326f5761326e613215565b5b50919050565b7f4e487b7100000000000000000000000000000000000000000000000000000000600052603260045260246000fd5b600081905092915050565b60006132ba826129e9565b6132c481856132a4565b93506132d4818560208601612a05565b80840191505092915050565b60006132ec82846132af565b915081905092915050565b7f4e487b7100000000000000000000000000000000000000000000000000000000600052601160045260246000fd5b600061333182612a91565b91507fffffffffffffffffffffffffffffffffffffffffffffffffffffffffffffffff8203613363576133626132f7565b5b600182019050919050565b7f54686973206669656c642062757374206e6f7420656d70747900000000000000600082015250565b60006133a4601983612ca1565b91506133af8261336e565b602082019050919050565b600060208201905081810360008301526133d381613397565b9050919050565b7f4e6f7420617574686f72697a6564000000000000000000000000000000000000600082015250565b6000613410600e83612ca1565b915061341b826133da565b602082019050919050565b6000602082019050818103600083015261343f81613403565b9050919050565b7f4e6577206365727469666963617465204944206d757374206e6f74206265206560008201527f6d70747900000000000000000000000000000000000000000000000000000000602082015250565b60006134a2602483612ca1565b91506134ad82613446565b604082019050919050565b600060208201905081810360008301526134d181613495565b9050919050565b7f4f726967696e616c204944206d757374206e6f7420626520656d707479000000600082015250565b600061350e601d83612ca1565b9150613519826134d8565b602082019050919050565b6000602082019050818103600083015261353d81613501565b9050919050565b7f495046532068617368206d757374206e6f7420626520656d7074790000000000600082015250565b600061357a601b83612ca1565b915061358582613544565b602082019050919050565b600060208201905081810360008301526135a98161356d565b9050919050565b7f4f726967696e616c206365727469666963617465206e6f7420666f756e640000600082015250565b60006135e6601e83612ca1565b91506135f1826135b0565b602082019050919050565b60006020820190508181036000830152613615816135d9565b9050919050565b7f4e657720636572746966696361746520494420616c726561647920657869737460008201527f7300000000000000000000000000000000000000000000000000000000000000602082015250565b6000613678602183612ca1565b91506136838261361c565b604082019050919050565b600060208201905081810360008301526136a78161366b565b9050919050565b600060c08201905081810360008301526136c88189612cb2565b905081810360208301526136dc8188612cb2565b905081810360408301526136f08187612cb2565b90506136ff6060830186612926565b81810360808301526137118185612cb2565b905061372060a0830184613087565b979650505050505050565b7f4365727469666963617465204944206d757374206e6f7420626520656d707479600082015250565b6000613761602083612ca1565b915061376c8261372b565b602082019050919050565b6000602082019050818103600083015261379081613754565b9050919050565b7f436572746966696361746520494420616c726561647920657869737473000000600082015250565b60006137cd601d83612ca1565b91506137d882613797565b602082019050919050565b600060208201905081810360008301526137fc816137c0565b9050919050565b50565b6000613813600083612ca1565b915061381e82613803565b600082019050919050565b600060c08201905081810360008301526138438188612cb2565b905081810360208301526138578187612cb2565b9050818103604083015261386a81613806565b90506138796060830186612926565b818103608083015261388b8185612cb2565b905061389a60a0830184613087565b9695505050505050565b7f4365727469666963617465206e6f7420666f756e640000000000000000000000600082015250565b60006138da601583612ca1565b91506138e5826138a4565b602082019050919050565b60006020820190508181036000830152613909816138cd565b9050919050565b600061391b82612a91565b915061392683612a91565b925082821015613939576139386132f7565b5b828203905092915050565b600061394f82612a91565b915060008203613962576139616132f7565b5b60018203905091905056fea2646970667358221220555fa602a2d5b0312f8f41d328358c224eb4c10def5c44946770c21fdc62b96d64736f6c634300080d0033",
  "immutableReferences": {},
  "source": "// SPDX-License-Identifier: MIT\npragma solidity >=0.4.22 <0.9.0;\n\ncontract Certification {\n    address public signatureOwner;\n\n    // track informasi sertifikat\n    struct Certificate {\n        string rootId; // id awal sertifikat (root)\n        string id; // id versi sertifikat saat ini (newer)\n        string previousId; // referensi id 1 versi sebelumnya (newer - 1)\n        address signedBy; // alamat pengguna yang menandatangani sertifikat\n        string ipfsHash; // IPFS hash dalam menyimpan file sertifkat\n        uint256 timestamp; // waktu perubahan / pembuatan\n        string title; // judul sertifikat\n        string description; // deskripsi sertifikat\n    }\n\n    // sertifikat berdasarkan ID (root, newer, maupun newer - 1)\n    mapping(string => Certificate) public certificates;\n\n    // map yang berfungsi dalam mencatat versi terbaru sertifikat menggunakan id paling awal (init)\n    mapping(string => string) public latestCertificateId;\n\n    // menyimpan daftar sertifikat yang sudah dibuat oleh signatureOwner (root ID only)\n    mapping(address => string[]) public signedCertificates;\n\n    // Event to log certificate creation and updates\n    event CertificateSigned(\n        string id,\n        string rootId,\n        string previousId,\n        address signedBy,\n        string ipfsHash,\n        uint256 timestamp\n    );\n\n    // Constructor to set the contract owner\n    constructor() {\n        signatureOwner = msg.sender;\n    }\n\n    // Modifier to restrict access to the contract owner\n    modifier onlyOwner() {\n        require(msg.sender == signatureOwner, \"Not authorized\");\n        _;\n    }\n\n    function getSignatureOwner() public view returns (address) {\n        return signatureOwner;\n    }\n\n    // buat sertifikat baru. fungsi ini tidak akan bekerja bagi sertifikat yang sudah dibuat sebelumnya\n    function signCertificate(\n        string memory _id,\n        string memory _ipfsHash,\n        string memory _title,\n        string memory _description\n    ) public onlyOwner {\n        require(bytes(_id).length > 0, \"Certificate ID must not be empty\");\n        require(bytes(_ipfsHash).length > 0, \"IPFS hash must not be empty\");\n        require(\n            certificates[_id].timestamp == 0,\n            \"Certificate ID already exists\"\n        );\n\n        // Create and store the certificate\n        certificates[_id] = Certificate({\n            id: _id,\n            rootId: _id,\n            signedBy: msg.sender,\n            ipfsHash: _ipfsHash,\n            previousId: \"\",\n            timestamp: block.timestamp,\n            title: _title,\n            description: _description\n        });\n\n        // Update the latest version tracker\n        latestCertificateId[_id] = _id;\n\n        signedCertificates[msg.sender].push(_id);\n\n        // Emit an event for logging\n        emit CertificateSigned(\n            _id,\n            _id,\n            \"\",\n            msg.sender,\n            _ipfsHash,\n            block.timestamp\n        );\n    }\n\n    // Function to edit a certificate\n    function editCertificate(\n        string memory _newId,\n        string memory _initialId,\n        string memory _ipfsHash,\n        string memory _title,\n        string memory _description\n    ) public onlyOwner {\n        require(\n            bytes(_newId).length > 0,\n            \"New certificate ID must not be empty\"\n        );\n        require(bytes(_initialId).length > 0, \"Original ID must not be empty\");\n        require(bytes(_ipfsHash).length > 0, \"IPFS hash must not be empty\");\n\n        // Ensure the original certificate exists\n        string memory latestId = latestCertificateId[_initialId];\n        require(bytes(latestId).length > 0, \"Original certificate not found\");\n\n        // Ensure the new ID does not already exist\n        require(\n            certificates[_newId].timestamp == 0,\n            \"New certificate ID already exists\"\n        );\n\n        // Create and store the new version of the certificate\n        certificates[_newId] = Certificate({\n            id: _newId,\n            rootId: _initialId,\n            signedBy: msg.sender,\n            ipfsHash: _ipfsHash,\n            previousId: latestId,\n            timestamp: block.timestamp,\n            title: _title,\n            description: _description\n        });\n\n        // Update the latest version tracker\n        latestCertificateId[_initialId] = _newId;\n\n        // Emit an event for logging\n        emit CertificateSigned(\n            _newId,\n            _initialId,\n            latestId,\n            msg.sender,\n            _ipfsHash,\n            block.timestamp\n        );\n    }\n\n    // Function to retrieve the latest version of a certificate\n    function getLatestCertificate(\n        string memory _originalId\n    ) public view returns (Certificate memory) {\n        string memory latestId = latestCertificateId[_originalId];\n        require(bytes(latestId).length > 0, \"Certificate not found\");\n        return certificates[latestId];\n    }\n\n    //mendapat sertifikat berdasarkan id\n    function getCertificateById(\n        string memory _certId\n    ) public view returns (Certificate memory){\n        require(bytes(_certId).length >0, \"This field bust not empty\");\n        return certificates[_certId];\n    }\n\n    function getSignedCertificatesByOwner(\n        address _owner\n    ) public view returns (Certificate[] memory) {\n        string[] memory signedCertIds = signedCertificates[_owner];\n        Certificate[] memory latestCertificates = new Certificate[](\n            signedCertIds.length\n        );\n\n        for (uint256 i = 0; i < signedCertIds.length; i++) {\n            string memory latestId = latestCertificateId[signedCertIds[i]];\n            latestCertificates[i] = certificates[latestId];\n        }\n        return latestCertificates;\n    }\n\n    // Function to trace the history of a certificate\n    function getCertificateHistory(\n        string memory _initialId\n    ) public view returns (Certificate[] memory) {\n        require(\n            bytes(latestCertificateId[_initialId]).length > 0,\n            \"Certificate not found\"\n        );\n\n        // Count the number of versions\n        uint256 count = 0;\n        string memory currentId = latestCertificateId[_initialId];\n        while (bytes(currentId).length > 0) {\n            count++;\n            currentId = certificates[currentId].previousId;\n        }\n\n        // Retrieve all versions\n        Certificate[] memory history = new Certificate[](count);\n        currentId = latestCertificateId[_initialId];\n        for (uint256 i = count; i > 0; i--) {\n            history[i - 1] = certificates[currentId];\n            currentId = certificates[currentId].previousId;\n        }\n\n        return history;\n    }\n}\n",
  "sourcePath": "D:\\dev\\nodejs\\blockchain-cert\\truffle\\contracts\\Certification.sol",
  "compiler": {
    "name": "solc",
    "version": "0.8.13+commit.abaa5c0e.Emscripten.clang"
  },
  "schemaVersion": "3.4.16",
  "updatedAt": "2024-11-20T08:02:32.116Z",
  "networkType": "ethereum",
  "devdoc": {
    "kind": "dev",
    "methods": {},
    "version": 1
  },
  "userdoc": {
    "kind": "user",
    "methods": {},
    "version": 1
  }
}